{
  "contractName": "Cow",
  "abi": [
    {
      "inputs": [],
      "payable": false,
      "stateMutability": "nonpayable",
      "type": "constructor"
    },
    {
      "anonymous": false,
      "inputs": [
        {
          "indexed": false,
          "internalType": "address",
          "name": "criador",
          "type": "address"
        },
        {
          "indexed": false,
          "internalType": "uint256",
          "name": "meta",
          "type": "uint256"
        }
      ],
      "name": "CriarVaquinha",
      "type": "event"
    },
    {
      "anonymous": false,
      "inputs": [
        {
          "indexed": false,
          "internalType": "address",
          "name": "criador",
          "type": "address"
        }
      ],
      "name": "SacarVaquinha",
      "type": "event"
    },
    {
      "constant": false,
      "inputs": [
        {
          "internalType": "uint256",
          "name": "_meta",
          "type": "uint256"
        },
        {
          "internalType": "bool",
          "name": "_destaque",
          "type": "bool"
        }
      ],
      "name": "criarVaquinha",
      "outputs": [],
      "payable": true,
      "stateMutability": "payable",
      "type": "function"
    },
    {
      "constant": true,
      "inputs": [],
      "name": "getVaquinhas",
      "outputs": [
        {
          "components": [
            {
              "internalType": "uint256",
              "name": "id",
              "type": "uint256"
            },
            {
              "internalType": "address",
              "name": "criador",
              "type": "address"
            },
            {
              "internalType": "uint256",
              "name": "meta",
              "type": "uint256"
            },
            {
              "internalType": "uint256",
              "name": "saldo",
              "type": "uint256"
            },
            {
              "internalType": "bool",
              "name": "destaque",
              "type": "bool"
            }
          ],
          "internalType": "struct Cow.Vaquinha[]",
          "name": "",
          "type": "tuple[]"
        }
      ],
      "payable": false,
      "stateMutability": "view",
      "type": "function"
    },
    {
      "constant": true,
      "inputs": [],
      "name": "getVaquinhaByAddress",
      "outputs": [
        {
          "components": [
            {
              "internalType": "uint256",
              "name": "id",
              "type": "uint256"
            },
            {
              "internalType": "address",
              "name": "criador",
              "type": "address"
            },
            {
              "internalType": "uint256",
              "name": "meta",
              "type": "uint256"
            },
            {
              "internalType": "uint256",
              "name": "saldo",
              "type": "uint256"
            },
            {
              "internalType": "bool",
              "name": "destaque",
              "type": "bool"
            }
          ],
          "internalType": "struct Cow.Vaquinha",
          "name": "",
          "type": "tuple"
        }
      ],
      "payable": false,
      "stateMutability": "view",
      "type": "function"
    }
  ],
  "bytecode": "0x608060405234801561001057600080fd5b50336000806101000a81548173ffffffffffffffffffffffffffffffffffffffff021916908373ffffffffffffffffffffffffffffffffffffffff1602179055506107fd806100606000396000f3fe6080604052600436106100345760003560e01c8063972f3df314610039578063cb29dd8514610064578063e2188dbf14610080575b600080fd5b34801561004557600080fd5b5061004e6100ab565b60405161005b9190610698565b60405180910390f35b61007e600480360361007991908101906104a2565b610199565b005b34801561008c57600080fd5b506100956103e1565b6040516100a291906106ba565b60405180910390f35b60606002805480602002602001604051908101604052809291908181526020016000905b8282101561019057838290600052602060002090600502016040518060a0016040529081600082015481526020016001820160009054906101000a900473ffffffffffffffffffffffffffffffffffffffff1673ffffffffffffffffffffffffffffffffffffffff1673ffffffffffffffffffffffffffffffffffffffff16815260200160028201548152602001600382015481526020016004820160009054906101000a900460ff161515151581525050815260200190600101906100cf565b50505050905090565b600034116101a657600080fd5b60026040518060a00160405280600081526020013373ffffffffffffffffffffffffffffffffffffffff16815260200184815260200160008152602001831515815250908060018154018082558091505090600182039060005260206000209060050201600090919290919091506000820151816000015560208201518160010160006101000a81548173ffffffffffffffffffffffffffffffffffffffff021916908373ffffffffffffffffffffffffffffffffffffffff160217905550604082015181600201556060820151816003015560808201518160040160006101000a81548160ff0219169083151502179055505050506040518060a00160405280600081526020013373ffffffffffffffffffffffffffffffffffffffff16815260200183815260200160008152602001821515815250600160003373ffffffffffffffffffffffffffffffffffffffff1673ffffffffffffffffffffffffffffffffffffffff1681526020019081526020016000206000820151816000015560208201518160010160006101000a81548173ffffffffffffffffffffffffffffffffffffffff021916908373ffffffffffffffffffffffffffffffffffffffff160217905550604082015181600201556060820151816003015560808201518160040160006101000a81548160ff0219169083151502179055509050507fdf9427484b29b73d00a82abb37ac7c5c6953f3c6f95729ab60d5c126de7c831033836040516103d592919061066f565b60405180910390a15050565b6103e9610431565b6040518060a00160405280600081526020013373ffffffffffffffffffffffffffffffffffffffff168152602001600081526020016000815260200160011515815250905090565b6040518060a0016040528060008152602001600073ffffffffffffffffffffffffffffffffffffffff16815260200160008152602001600081526020016000151581525090565b6000813590506104878161078c565b92915050565b60008135905061049c816107a3565b92915050565b600080604083850312156104b557600080fd5b60006104c38582860161048d565b92505060206104d485828601610478565b9150509250929050565b60006104ea83836105e9565b60a08301905092915050565b6104ff81610756565b82525050565b61050e8161070e565b82525050565b600061051f826106e5565b61052981856106fd565b9350610534836106d5565b8060005b8381101561056557815161054c88826104de565b9750610557836106f0565b925050600181019050610538565b5085935050505092915050565b61057b81610720565b82525050565b60a0820160008201516105976000850182610651565b5060208201516105aa6020850182610505565b5060408201516105bd6040850182610651565b5060608201516105d06060850182610651565b5060808201516105e36080850182610572565b50505050565b60a0820160008201516105ff6000850182610651565b5060208201516106126020850182610505565b5060408201516106256040850182610651565b5060608201516106386060850182610651565b50608082015161064b6080850182610572565b50505050565b61065a8161074c565b82525050565b6106698161074c565b82525050565b600060408201905061068460008301856104f6565b6106916020830184610660565b9392505050565b600060208201905081810360008301526106b28184610514565b905092915050565b600060a0820190506106cf6000830184610581565b92915050565b6000819050602082019050919050565b600081519050919050565b6000602082019050919050565b600082825260208201905092915050565b60006107198261072c565b9050919050565b60008115159050919050565b600073ffffffffffffffffffffffffffffffffffffffff82169050919050565b6000819050919050565b600061076182610768565b9050919050565b60006107738261077a565b9050919050565b60006107858261072c565b9050919050565b61079581610720565b81146107a057600080fd5b50565b6107ac8161074c565b81146107b757600080fd5b5056fea365627a7a723158209896924be2a14c957d21620853290a3b60766624197544fee74a9f5a05d350186c6578706572696d656e74616cf564736f6c634300050c0040",
  "source": "pragma solidity >=0.4.21 <0.6.0;\r\npragma experimental ABIEncoderV2;\r\n\r\ncontract Cow{\r\n\r\n    address owner;\r\n    \r\n    struct  Vaquinha{ \r\n        uint id;\r\n        address criador;\r\n        uint meta;\r\n        uint saldo;\r\n        bool destaque;\r\n    }\r\n\r\n    mapping(address => Vaquinha) vaquinhasPorEndereco;\r\n\r\n    Vaquinha[] vaquinhas;\r\n\r\n    event CriarVaquinha(address criador, uint meta);\r\n    event SacarVaquinha(address criador);\r\n\r\n    constructor() public {\r\n        owner = msg.sender;\r\n    }\r\n\r\n    modifier onlyOwner {\r\n        require(msg.sender == owner);\r\n        _;\r\n    }\r\n\r\n    function criarVaquinha(uint _meta, bool _destaque) public payable {\r\n        require(msg.value > 0 ether);\r\n        vaquinhas.push(Vaquinha(0, msg.sender, _meta, 0, _destaque));\r\n        vaquinhasPorEndereco[msg.sender] = Vaquinha(0, msg.sender, _meta, 0, _destaque);\r\n        emit CriarVaquinha(msg.sender, _meta);\r\n    }\r\n\r\n    function getVaquinhas() public view returns (Vaquinha[] memory){\r\n        return vaquinhas;\r\n    }\r\n\r\n\r\n    function getVaquinhaByAddress(/*address _criador*/) public view returns(Vaquinha memory)\r\n    {\r\n        return Vaquinha(0, msg.sender, 0, 0, true);\r\n    }\r\n\r\n\r\n\r\n}",
  "sourcePath": "C:/Users/Frankleiton/Documents/Projects/Etherum/Cow/contracts/Cow.sol",
  "compiler": {
    "name": "solc",
    "version": "0.5.12+commit.7709ece9.Emscripten.clang"
  },
  "schemaVersion": "3.0.19",
  "updatedAt": "2019-12-01T22:50:04.995Z",
  "devdoc": {
    "methods": {}
  },
  "userdoc": {
    "methods": {}
  }
}